:100000000C94CC030C9413040C9413040C9413045C
:100010000C9413040C9413040C9413040C94130404
:100020000C9413040C9413040C94BE150C94FA1441
:100030000C9429200C9413040C9413040C941304B2
:100040000C9413040C9413040C9413040C941304D4
:100050000C9413040C94A8170C9413040C9413041C
:100060000C9413040C9413040C9413040C941304B4
:100070000C9413040C9413040C9413040C941304A4
:100080000C9413040C9413040C9413040C94130494
:100090000C9413040C9413040C9413040C94130484
:1000A0000C9413040C9413040C941304AD09AD09BF
:1000B000E809E809420A600A6A0B6A0B6B0ADF0A60
:1000C000F00AF00A890F8B0FB10FBE0FC50FE50FB5
:1000D000E80F39107010151115117F10811085105F
:1000E000AA10CC10CF10D210F5100E133513DC145B
:1000F0003513DC148113A413DC149914A914832779
:100100008327962796278C27962796279627832737
:10011000832791279627962791270000000000004B
:1001200000000000000000000000000000000000CF
:1001300000000000000000000000000000007E0F32
:1001400000D4FFFFFFC7000000780000000000009F
:1001500000002A2B28000000000000000000000022
:10016000000000000029000000002C1E3420212285
:1001700024342627252E362D3738271E1F202122EE
:10018000232425263333362E37381F040506070867
:10019000090A0B0C0D0E0F10111213141516171857
:1001A000191A1B1C1D2F3130232D35040506070895
:1001B000090A0B0C0D0E0F10111213141516171837
:1001C000191A1B1C1D2F3130354C00047F3F1F6452
:1001D0003214643214783C1E1E140A05050109020B
:1001E000A10185020901A1000509190129081500CD
:1001F0002501950875018102050109300931158134
:10020000257F95027508810609381581257F95019E
:1002100075088106050C0A38021581257F95017540
:10022000088106C0C005010980A101850319012AC2
:10023000B700150126B700950175108100C0050CA7
:100240000901A101850419012AA002150126A002B5
:10025000950175108100C005010906A101850505FC
:100260000719E029E71500250195087501810205A8
:1002700007190029EF1500250195F0750181020588
:1002800008190129059505750191029501750391DC
:1002900001C00660FF0961A1010962150026FF0087
:1002A0009520750881020963150026FF00952075C9
:1002B000089102C005010906A101050719E029E717
:1002C00015002501950875018102950175088101C8
:1002D0000507190029FF150026FF009506750881FE
:1002E000000508190129059505750191029501750B
:1002F000039101C009025B00030100A0FA09040098
:100300000001030101000921110100012240000741
:1003100005810308000A0904010002030000000926
:10032000211101000122220007058203200001079C
:100330000503032000010904020001030000000975
:10034000211101000122B6000705840320000A12D2
:1003500001000200000008544D05200100010200C8
:10036000010803450037003500000006034D005426
:10037000000000040309042223252628292A2C2D05
:100380002F3032333536383A3B3D3E4042434547C5
:10039000494A4C4E5051535557595A5C5E606264FD
:1003A0006668696B6D6F71737577797B7D7F81830B
:1003B0008587898A8C8E90929496989A9C9E9FA10C
:1003C000A3A5A7A8AAACAEAFB1B3B4B6B8B9BBBC2D
:1003D000BEBFC1C2C3C5C6C7C9CACBCCCDCED0D1A2
:1003E000D2D2D3D4D5D6D7D7D8D9D9DADADBDBDB9A
:1003F000DCDCDCDCDCDDDDDDDDDCDCDCDCDCDBDB3B
:10040000DBDADAD9D9D8D7D7D6D5D4D3D2D2D1D08E
:10041000CECDCCCBCAC9C7C6C5C3C2C1BFBEBCBB8B
:10042000B9B8B6B4B3B1AFAEACAAA8A7A5A3A19F03
:100430009E9C9A98969492908E8C8A8987858381C7
:100440007F7D7B79777573716F6D6B6968666462A8
:10045000605E5C5A5957555351504E4C4A49474576
:100460004342403E3D3B3A3836353332302F2D2C17
:100470002A29282625232229003A003B003C003D5A
:10048000003E003F00400041004200430044004560
:10049000000151490035001E001F002000210022EC
:1004A00000230024002500260027002D002E002A0E
:1004B0000035002B0014001A000800150017001C5E
:1004C0000018000C00120013002F00300028004D0F
:1004D00000390004001600070009000A000B000D97
:1004E000000E000F0033003400310000000000E176
:1004F00000C35C1D001B0006001900050011001060
:1005000000360037003800E50052000000E000E34C
:1005100000E2000000000000002C000000E60000E7
:1005200000E400500051004F004C00005C0100014D
:1005300000010001000100010001000100010001B3
:1005400000010001000100010001000100010001A3
:100550000001000100010001000100010001000193
:100560000001000100010001000100010001000183
:100570000001000100010001000100010001000173
:100580000001000100010001000100010001000163
:100590000001000100010001000100010001000054
:1005A0000000000100010001000100010001000144
:1005B00000010001000100010001000100C35C0016
:1005C0000001000100010000000000000001000027
:1005D00000010000000100C05CC25CBE5C010001C3
:1005E0000001000100010001000100010001000103
:1005F00000010001000100010001000100010001F3
:1006000000010001000100010001000100010001E2
:1006100000010001000100010001000100010001D2
:1006200000010001000100010001000100010001C2
:1006300000010001000100010001000100010001B2
:1006400000010001000100010001000100010001A2
:100650000001000000000001000100010001000194
:100660000001000100010001000100010001000182
:100670000001000000010001000100000000000076
:100680000001000000010000000100010001000164
:10069000000100000101010101010101010202024A
:1006A000020202020202030303030303030304041E
:1006B00004040404040505050505060606060607E8
:1006C0000707070708080808090909090A0A0A0BA1
:1006D0000B0B0C0C0C0D0D0D0E0E0E0F0F0F101042
:1006E00011111112121313141415151616171718C9
:1006F0001819191A1A1B1B1C1D1D1E1E1F20202134
:100700002222232424252626272829292A2B2C2D7A
:100710002D2E2F30313232333435363738393A3B9B
:100720003C3D3E3F404142434445464748494A4C90
:100730004D4E4F50515354555658595A5B5D5E5F5C
:10074000616264656668696B6C6D6F7072737577F2
:10075000787A7B7D7E8082838587888A8C8E8F9154
:10076000939596989A9C9EA0A2A3A5A7A9ABADAF7E
:10077000B1B3B5B7BABCBEC0C2C4C6C9CBCDCFD168
:10078000D4D6D8DBDDDFE2E4E7E9EBEEF0F3F5F811
:10079000FAFDFFFFAA7F554011241FBECFEFDAE01C
:1007A000DEBFCDBF04B603FE27C0809158039091F1
:1007B0005903A0915A03B0915B038730904BA74037
:1007C000B04BD1F4109258031092590310925A036F
:1007D00010925B0314BE84B7877F84BF0FB6F89472
:1007E000A8958091600088618093600010926000FD
:1007F0000FBEE0E0F8E3099511E0A0E0B1E0E2E52A
:10080000F3E502C005900D92A439B107D9F723E0B2
:10081000A4E9B1E001C01D92A835B207E1F70E943A
:10082000EA0B0C94A7290C9400001F93CF93DF933D
:10083000CDB7DEB767970FB6F894DEBF0FBECDBF5A
:100840004B8B5C8B6D8B7E8B8F8B61111092510269
:1008500086E09E01235F3F4FD901E82F1D92EA9564
:10086000E9F795E0FE017396D90101900D929A95F2
:10087000E1F79C894E895F897B897D879E876F8799
:10088000598B488BF901DE01179601900D928A95DC
:10089000E1F7CE0107960E946C1C81113EC086E0F4
:1008A000FE013796DE01119601900D928A95E1F7CF
:1008B000FF81E8856A857B856115710531F0EF3F21
:1008C00031F481E0FF3F19F403C081E001C080E012
:1008D00080FD23C020911D0230E0C9010196877080
:1008E000992740914E0250E08417950779F1F983DA
:1008F000EA837D836C8396E0929FD001939FB00D35
:100900001124A25EBD4FFE01319601900D929A9581
:10091000E1F780931D020E94E91B16E080914E02D0
:1009200090911D028917F9F0189FC0011124825E71
:100930009D4F0E946C1C8823B1F080914E0290E084
:1009400001968770992780934E02E8CF0E949A27DC
:1009500010921D0210924E02E7E1F2E086E0DF0104
:100960001D928A95E9F767960FB6F894DEBF0FBE21
:10097000CDBFDF91CF911F91089581FD02C0479AAD
:100980000895479808953F924F925F926F927F9299
:100990008F929F92AF92BF92CF92DF92EF92FF928F
:1009A0000F931F93CF93DF93CDB7DEB729970FB681
:1009B000F894DEBF0FBECDBFFC0180819181238101
:1009C0003481232B31F09F3F31F491E08F3F19F4B4
:1009D00003C091E001C090E090FDE4C67F0185E096
:1009E000DE01119601900D928A95E1F7F7012281BF
:1009F00089819A81222349F00E94C926182F682FE5
:100A000089819A810E94242703C00E94F826182F0A
:100A100069817A81812F0E94C4218C01F701828132
:100A2000882309F4F2C0980122513F452031310555
:100A300008F019C18FEF93E00E9493288111EFC055
:100A4000025137EF832E32E0932E002379F0811488
:100A5000F4E09F0609F4E3C0C4010E9493288111C9
:100A600001C001502FEF821A920AEFCF1E821F821F
:100A700018861986442443942AE0322E84010F5F9D
:100A80001F4FC4010E9493288E831F82882309F47C
:100A9000C6C09FEF980F933060F48F834E8232E090
:100AA000830E911CC8010E9493288887811102C07F
:100AB000B6C048018E010A5F1F4FF8012081222332
:100AC000E9F2213009F04CC08181813049F468019C
:100AD000F2E0CF0ED11CF80182810E9475280AC075
:100AE000823051F46801F2E0CF0ED11CF80182810E
:100AF0000E94FD27860186C0833049F46801F2E038
:100B0000CF0ED11CF80182810E94C427F3CF84301C
:100B100019F00F5F1F4F76C0F80122810E5F1F4F43
:100B200080E090E030E0205331092A30310568F44C
:100B3000389EA001399E500D1124C901840F951FC4
:100B40000F5F1F4FF8012081EDCF009709F45AC0C5
:100B5000EFE9FFE03197F1F700C000000197F5CF12
:100B6000E22FF0E0E65BFE4F5490822F869586954B
:100B7000869590E0FC01E65CFE4F64902770712C36
:100B8000022E02C0759467940A94E2F7F1E06F2296
:100B90007724FC01E65DFE4FA490B12C022E02C02A
:100BA000B594A7940A94E2F731E0A322BB24FC0198
:100BB000E65EFE4FC490D12C02C0D594C7942A950E
:100BC000E2F781E0C822DD246114710419F081EE9E
:100BD0000E94FD27A114B10419F086EE0E94FD27A2
:100BE000852D0E947528AB2819F086EE0E94C42737
:100BF000672819F081EE0E94C427CD2819F08CE2F5
:100C00000E9475280F5F1F4F58CF0031EFE51E0778
:100C100009F0BFC581E00E9453270E941D128091F8
:100C20004F02877009F4BEC5F7018281882309F459
:100C3000B9C582E029960FB6F894DEBF0FBECDBFCE
:100C4000DF91CF911F910F91FF90EF90DF90CF90A8
:100C5000BF90AF909F908F907F906F905F904F90DC
:100C60003F900C94CC1B00313FE5130711F481E059
:100C700005C001319FE5190721F482E00E945F273A
:100C8000CCCF0D3BFCE51F0781F480911403982F16
:100C9000969596959695C9F1915E990F990F990F32
:100CA0008770892B8093140324C00E3B2CE5120718
:100CB00008F43EC00F3BECE51E0769F108F44CC593
:100CC000003C2CE5120709F045C090911403892FD0
:100CD0008695869586958F5F8F71843008F055C50F
:100CE000880F880F880F9770892B80931403809149
:100CF0001403887F91E009F490E08091140390FB45
:100D000080F9809314030E947C22809114038695BD
:100D1000869586950AC08091140380FF12C58E7F48
:100D2000809314030E947C2280E00E94172277CFD8
:100D30000B3B3CE5130711F483E005C00C3B9CE53D
:100D4000190741F480E00E948122809114030E94DF
:100D50007C2265CF033FFCE51F0799F406E221EEF4
:100D600040EE63EF7CE509C0073DECE51E0711F599
:100D700006E221EE41EE67ED7CE5C7010E94E72027
:100D80004ECF043F2CE5120708F03FC1083D3CE57B
:100D9000130731F407E225EE45EE68ED7CE5EDCF73
:100DA000093D9CE5190701F708E221E045EE69EDF0
:100DB0007CE5E3CF882309F45DC11092170302306C
:100DC0009CE5190708F440C10631ECE51E0730F038
:100DD000C8018A5F9C45099708F036C10E94E01A55
:100DE0009093C3018093C2010031FCE51F0709F411
:100DF000C3C008F041C008303CE5130709F49AC0AD
:100E0000F0F404309CE5190709F487C068F4023057
:100E1000FCE51F0709F477C003301C4509F0E5C065
:100E20008091C201826076C006303CE5130709F468
:100E30006EC008F07BC08091C20188606BC00C302E
:100E40009CE5190709F485C068F40A30FCE51F0722
:100E500009F474C008F079C00E949A278091C201F9
:100E6000806858C00E303CE5130709F476C008F0DE
:100E70007FC08091C2018BC00B3F9CE5190709F42C
:100E80004FC018F50331FCE51F0709F47DC078F465
:100E900001313CE5130709F473C002311C4509F028
:100EA000A4C00E949A278091C2018F7733C0053178
:100EB0009CE5190709F472C008F486C00A3F1C4576
:100EC00009F093C08091C3013EC00F3F2CE512078B
:100ED00009F45FC058F40D3F8CE5180709F444C0CD
:100EE00008F43FC08091C30182602DC00130EDE560
:100EF0001E0709F475C008F45DC002301D4509F0F5
:100F000074C060E06EC08091C201816003C08091B6
:100F1000C20180618093C20168C08091C20111C08A
:100F20008091C30182608093C3015FC08091C20140
:100F30008062F0CF8091C2018064ECCF8091C201C9
:100F400088608460E7CF8160EECF8091C2018E7FA0
:100F5000E1CF8091C2018D7FDDCF8091C201877F7B
:100F6000D9CF8091C30118C08091C3018D7FDBCFA1
:100F70008091C2018F7ECECF8091C2018F7DCACF7A
:100F80008091C2018F7BC6CF8091C201877F8B7F0A
:100F9000C1CF8091C3018D7F8E7FC5CF8091C2016B
:100FA00082FB222720F991E0922790FB82F990FBA7
:100FB00083F9B0CF8091C301982F909591708E7F67
:100FC000892B90FB81F9AFCF0E949A278091C201B3
:100FD00087FB222720F991E0922790FB87F99ACF8F
:100FE00061E08EE090E00E94A7286091C20110911C
:100FF000C30184E090E00E94A728612F82E290E084
:101000000E94A7280E949A270ACE053FFCE51F07E9
:1010100031F406E221EE42EE65EF7CE5AECE053F0F
:101020002CE5120730F407E225EE44EE64EF7CE590
:10103000A4CE063F3CE5130709F0BCCE07E225EE3F
:1010400046EE66EF7CE599CE8091520206319CE532
:10105000190709F58A7A91E009F490E090939601D6
:10106000882311F065E301C069E287EF91E00E94F7
:101070007A200EC006311C4509F026C180919601E8
:10108000882309F48DC365E387EF91E00E94522025
:101090000E946C1BC4CD82720C3C3CE5130709F422
:1010A000C2C008F045C0063CECE51E0709F4A7C025
:1010B000D8F4033C2CE5120709F497C030F4023C45
:1010C0008CE5180709F46CC0CEC0043C9CE51907F8
:1010D00009F490C0053CECE51E0709F0C4C047E0E8
:1010E00055E260E175E2A3C0093CFCE51F0709F485
:1010F00090C078F4073C3CE5130709F485C0083C30
:101100009CE5190709F0AFC04BEF54E26FEE74E2B3
:101110008EC00A3CECE51E0709F480C00B3CFCE5E0
:101120001F0709F0A0C040E553E261E673E27FC00B
:10113000013D2CE5120709F486C0A0F40E3C8CE5B5
:10114000180709F47AC008F475C00F3CECE51E07D7
:1011500009F476C0003DFCE51F0709F084C06EE08D
:1011600089E079C0043D2CE5120709F472C068F4E7
:10117000023D8CE5180709F469C0033D9CE5190799
:1011800009F071C061E088E16BC0053DECE51E0728
:1011900009F464C00D35FDE51F0709F440CD63C0B7
:1011A00080910F0380FF1BC08E7F80930F0360919F
:1011B0000F037091100380911103909112030E940C
:1011C0003E23109233032FEF30E782E0215030406E
:1011D0008040E1F700C000000E94DD2220CD816048
:1011E00080930F0361E086953BC04BE555E264E6D2
:1011F00075E21DC044E655E26BE575E218C040E1BA
:1012000055E267E075E213C04FEE54E26BEF74E213
:101210000EC047ED54E263EE74E209C043EE54E2BF
:1012200067ED74E204C041E653E260E573E20E94B8
:10123000D722F5CC61E081E013C065E082E00BC00D
:1012400068E086E008C064E18FE005C067E185E101
:1012500002C062E289E10E94C522E1CC61E083E242
:101260000E941925DCCC0A359DE5190741F150F49F
:101270000115FCE51F07A9F00E3D1C4529F50E944C
:10128000FC1ACDCC0B353DE51307D9F00C351D45C7
:10129000D9F48091C30182FB882780F991E08927E6
:1012A00011C00E949A279FEFE4E3FCE09150E040D8
:1012B000F040E1F700C000000E948417B0CC81E04C
:1012C00001C080E00E94B21BF70182810081118180
:1012D000882349F0C8010E94C926D82E682FC8016A
:1012E0000E94242704C0C8010E94F826D82EB80105
:1012F0008D2D0E94C4210E944619B82E192F982EB8
:10130000F7010281A580A2949FE0A92280914F025B
:10131000877099F0002389F0812F807F803421F03D
:1013200080E28B0D883048F082E00E94CC1B8091D7
:101330004F028770DD24D3948111D12CC12EC29429
:101340008FE0C8228C2D90E08C30910508F0C2C14E
:10135000FC01EA5AFF4F0C944329812F807F1F70B4
:10136000882311F01295107F0023B9F0112309F49E
:101370009DC180E28B0D883010F0911006C08091E5
:101380005202182B1093520205C080915102182B63
:10139000109351020E946C1B89C18B2D0E94C4279F
:1013A000112309F497C180E28B0D1095883010F05D
:1013B000911006C08091520218231093520205C06A
:1013C000809151021823109351020E946C1B82C11C
:1013D000812F807F1F70803211F01295107F8B2D2E
:1013E000992021F0F1E09F1611F130C00023B1F0F7
:1013F000AA2081F021E0A2120DC08091C30182FDDC
:1014000069C180915302182B181709F463C1109316
:10141000530260C180915302812B10C0AA2021F099
:1014200031E0A31609F456C10E94661B27C00023B1
:1014300041F085E08A1508F44DC1812F0E94BA273A
:1014400049C194E09A1508F445C118C0002349F039
:10145000AA2099F3F701858180FF28C18F708583C9
:10146000ECCFAA2059F0893309F031C1FFEF27EE04
:1014700033E0F15020403040E1F727C1812F0E9436
:10148000AF2728C1812F86958695837019F081300A
:1014900061F020C1002321F08B2D912F937002C0A9
:1014A00080E090E00E94C5201DC1002321F08B2D1B
:1014B000912F937002C080E090E00E94AF2012C193
:1014C0008B2D002319F00E94512602C00E949825FE
:1014D0000E946E2507C1812F8370A9F50111FEC0FE
:1014E0004B2D429546954770440F440F8B2D8F70BE
:1014F00090E09C01042E01C0220F0A94EAF7B4FE8A
:1015000008C08FE090E001C0880F4A95EAF7809507
:1015100001C080E0169516951370123069F088F4BA
:1015200090915402113019F0822B892302C0922B22
:10153000892B0E946A27D2C0822B9091540289275E
:10154000F8CF822BF6CF002319F0812F817001C0D4
:101550008695882309F4C2C04B2D42954695477065
:10156000440F440F8B2D8F7090E09C01042E01C01E
:10157000220F0A94EAF7B4FE08C08FE090E001C0A1
:10158000880F4A95EAF7809501C080E01695169578
:101590001370123059F078F49091F601113019F06F
:1015A000822B892309C0922B892B06C0822B909114
:1015B000F601892701C0822B0E944F278FC01F7020
:1015C000002339F0812F0E945F278B2D0E94BA27BC
:1015D00085C08B2D0E94AF27812F0E9453277EC08C
:1015E0008B2D92EF991659F1991538F0E0EF9E1670
:1015F00059F0F1EF9F16F1F055C023EF921631F13B
:1016000034EF931681F14EC0002379F084E08A15FF
:1016100008F460C01F7181E090E001C0880F1A9546
:10162000EAF79091F60189271BC095E09A1508F416
:1016300051C0F0CF002329F0812F8F7126C00023E5
:10164000D9F3812F8F710E94532744C0002339F0B2
:101650001F7181E001C0880F1A95EAF701C080E090
:101660000E944F2737C0002399F01F71812F0E94DD
:101670005F278091C30182FD07C0E8E01E9FC00183
:101680001124836080934F02812F0E945F2722C024
:1016900081E00E94CC1BF1E0FA15E0F482E00E94A8
:1016A000CC1B18C0002331F0AA2031F28B2D0E94F0
:1016B000FD2710C0AA2029F2893349F42FEF37EE15
:1016C00083E0215030408040E1F700C000008B2DC6
:1016D0000E94C42788EF8C0D843020F40E94DB2008
:1016E0000E94BD04DD2009F45DC080914F0280FDA1
:1016F00059C0F70112828595859585950E945F27CF
:10170000C7010E94C30480914F02859585958595F8
:1017100029960FB6F894DEBF0FBECDBFDF91CF91F3
:101720001F910F91FF90EF90DF90CF90BF90AF90FF
:101730009F908F907F906F905F904F903F900C9410
:101740005327816080931403813019F489E08093DA
:10175000140380911403D7CA20911403822F869515
:1017600086958695482F50E04330510554F48F5F9D
:10177000982F990F990F990F822F8770892B80933B
:101780001403809114038160BCCA97709093140372
:10179000AECA0131FFE51F0709F0DCCA82E03BCA8F
:1017A00069E272CC29960FB6F894DEBF0FBECDBFAA
:1017B000DF91CF911F910F91FF90EF90DF90CF902D
:1017C000BF90AF909F908F907F906F905F904F9061
:1017D0003F900895CF93DF93CDB7DEB7AA970FB6AA
:1017E000F894DEBF0FBECDBF84B7877F84BF0FB62E
:1017F000F894A895809160008861809360001092B1
:1018000060000FBE90E080E80FB6F894809361000E
:10181000909361000FBE85B7806885BF85B78068EB
:1018200085BF89EE97E190939501809394010E9482
:101830003E150E945D158091E20084608093E20075
:1018400078948091EC018823A1F01091E9001F7039
:101850009091EC00892F817090FD80E8182B1092F8
:10186000E9008091E80083FD0E9428121F70109308
:10187000E90082E084BD93E095BD9AEF97BD809327
:101880006E000E94FE21811102C00E94EF2109E139
:1018900011E0B8E2EB2EB1E0FB2EF80181918F014F
:1018A0008F3F11F00E942E18E016F106B1F708E202
:1018B00011E0AEE2EA2EA1E0FA2EF80181918F014B
:1018C0008F3F11F00E942E18E016F106B1F7E7E9FC
:1018D000F1E0A2EBB1E0119211921D921D9221E074
:1018E000E33AF207C1F70E94F11A811102C00E9487
:1018F000FC1A82E090E00E9493288093A5010E9448
:10190000E01A9093C3018093C2010E9445188FE3AF
:101910009CE90197F1F700C000000E9445188091F2
:10192000B20180FF08C06FEF7FEF80E090E00E947F
:10193000C5280E94841783E090E00E9493280E94AB
:101940006A273F9A479A269A2E9882E280938000CF
:1019500089E1809381008FEF9FEF909387008093C0
:1019600086000E949A220E949A228091A3018111EE
:1019700033C00E94F11A811104C00E94FC1A0E9417
:10198000722388E090E00E949B2860930F0370937D
:10199000100380931103909312036E7F71F40E94E1
:1019A000722388E090E00E949B2860930F0370935D
:1019B000100380931103909312030E94242310922A
:1019C000330380910F0380FF04C060E086950E947E
:1019D000192581E08093A30180E091E090931B039F
:1019E00080931A0368E1662E712C70E4372EE0E1D3
:1019F0004E2EF0E15F2E8E010F5F1F4F6E019DE0B6
:101A0000C90ED11C8091EC01853009F04DC052E126
:101A1000F52E8091EC01853009F03EC08091EC01FB
:101A2000843039F180E00E94172280E00E94BD04DA
:101A300010921E030FB6F894A895609260000FBE36
:101A40003092600083B7817F846083BF83B78160F9
:101A500083BF7894889583B78E7F83BF0FB6F89441
:101A6000A89580916000886180936000109260006A
:101A70000FBE8091EB01882309F4CBCF0E9445185B
:101A8000E2EBF1E081919191892B09F0F8C321E01B
:101A9000EE3BF207B9F7BDCF0E949A270E949A2227
:101AA0000E94DB200E94BD040E944518882359F043
:101AB0008FB7F8944091BE015091BF016091C00171
:101AC0007091C1018FBFA6EAB1E0E2EBF1E0E12C39
:101AD000F12C7E2D219131918D919D91822793271B
:101AE000009779F160E0AA24A394B12CAC014A21BB
:101AF0005B21452B09F169A37AA32A213B2181E0CF
:101B0000232B09F480E08BA30E94DD178160782FDE
:101B10009DA38CA349A15AA16BA18DA10E9415047C
:101B2000F701EE0FFF1FEA55FE4F80819181A82635
:101B3000B926B182A0821CC06F5FAA0CBB1C6F309B
:101B4000A9F63FEFE31AF30A46E0E416F10409F6BA
:101B50008FEF8EA38FA318A60E94DD178160782FC8
:101B60009AA789A74EA15FA168A58AA50E9415041E
:101B700080913303882309F498C080913203E09167
:101B80000F03E695E81BE0932E03823059F4F0E052
:101B9000E852FE4FE491EE2EF12C85E1A82E80E272
:101BA000B82E5EC0863059F4F0E0EB52FE4FE4915F
:101BB000EE2EF12CB5E0AB2EB0E2BB2E51C0893039
:101BC00061F4E695F0E0EE52FE4FE491EE2EF12C3A
:101BD000A8E9AA2EAFE1BA2E43C08F3061F4E69592
:101BE000F0E0E153FE4FE491EE2EF12CF8E2AF2E3F
:101BF000FFE1BF2E35C0853159F4F0E0E453FE4FCC
:101C0000E491EE2EF12CE7EDAE2EEEE1BE2E28C0D3
:101C10008831B1F0833249F4EAECF1E0E590F490D8
:101C200075ECA72E7FE1B72E1BC0843289F050EDF2
:101C3000E52E57E0F52E6DE0A62E6EE1B62E10C013
:101C400038E2E32EF12C4BE4A42E4EE1B42E08C072
:101C500094EFE92EFF24F3942EE0A22E2EE1B22E73
:101C600080912F03882361F010922F030E94DD17CB
:101C700090932D0380932C03109231031092300324
:101C80000E94DD17E0912C03F0912D038E1B9F0B1A
:101C90008F3F9F4750F4EE0EFF1EF0922D03E0920F
:101CA0002C038CE293E0F501099586E0E6E2F3E08F
:101CB000D80101900D928A95E1F7A0902803B09089
:101CC0002903E0902A03F0902B031092280310922E
:101CD000290310922A0310922B03A11003C0BB20EA
:101CE00009F451C080912403909125030E94CE17DE
:101CF0009C0190912003992309F4E0C2233331051C
:101D000008F441C09F3F19F09F5F90932003AA20E1
:101D100061F00E9431261A1414F491E001C09FEF83
:101D2000899F802D112480932803BB2061F00E949D
:101D300031261B1414F491E001C09FEF899F802D80
:101D4000112480932903309128033323E1F020915B
:101D500029032223C1F045EB3403C0011124992348
:101D600019F09093280303C081E08093280335EB9A
:101D70002303C0011124992319F09093290303C070
:101D800081E080932903E11003C0FF2009F451C0D2
:101D900080912203909123030E94CE179C01909181
:101DA0001F03992309F48FC22536310508F441C079
:101DB0009F3F19F09F5F90931F03EE2061F00E94F8
:101DC0000F261E1414F491E001C09FEF899F802D0F
:101DD000112480932A03FF2061F00E940F261F1414
:101DE00014F491E001C09FEF899F802D112480930E
:101DF0002B0330912A033323E1F020912B0322237C
:101E0000C1F045EB3403C0011124992319F09093DC
:101E10002A0303C081E080932A0335EB2303C0012A
:101E20001124992319F090932B0303C081E0809330
:101E30002B038091280381110BC08091290381110C
:101E400007C080912A03811103C080912B03811167
:101E50000E946E25AB82BC82ED82FE8286E0F80194
:101E6000A6E2B3E001900D928A95E1F70E94DB2093
:101E70009091A401891731F00E94DB208093A40186
:101E80000E94BD048091EC01843009F0BBCD83E059
:101E90008093E9008091E80082FFB4CD8091E80052
:101EA00085FF21C00E94931681111BC080E2A82EDD
:101EB000B12C780109C08091F100F70181937F0175
:101EC000F1E0AF1AB10869F08091E80085FDF3CF29
:101ED0008091E8008B778093E8000E949316882316
:101EE00099F391E001C090E08091E8008B778093B6
:101EF000E800992309F486CDE9818E2F90E0FC015A
:101F00003197E331F10508F090C1EE59FF4F0C9481
:101F100043291A82F8C08A81823009F4C6C183300D
:101F200089F0813009F081C12FB7F8948091BE010A
:101F30009091BF01A091C001B091C1012FBFBB839F
:101F4000AC8321C0F801A2EBB1E08C9111969C9179
:101F500011971296928383833296CE16DF06A9F7E5
:101F600066C18A81823009F060C16B817C818D817C
:101F70009E810E94492986E290E024C04C816B81B9
:101F80008A810E949E219D8397C1ED80FE80FE2460
:101F9000EF24FE248C81AB809A812EE1A29E500119
:101FA000112434EB939FA00CB11C1124A80EB11C7A
:101FB000A80EB11C6F2DC50187960E94A7286E2D13
:101FC000C50188960E94A72832C10E946A212FC1AC
:101FD0008A81893061F48B8143E0849FC0011124A0
:101FE0006FEF70E00E94F928862F0E9481228A817B
:101FF0008138B1F050F4803809F019C120E04B81EC
:10200000609111038091100331C0823859F18338F7
:1020100009F00DC120E0409112036C818B8126C034
:1020200060E08B810E9419259B8180910F039111A3
:1020300011C08E7F80930F03109233038FEF90E7D0
:10204000E2E081509040E040E1F700C000000E94D3
:10205000DD22EDC0816080930F0360E086950E94D1
:102060001925E5C08B8180931303E1C00E943524BC
:10207000DEC08A81893021F08A3089F41B82D7C082
:1020800080911403869586958695FFEF8F9FC001FA
:10209000112463E070E00E94F9286B83C8C0813886
:1020A00099F030F4803809F0C2C08091120316C054
:1020B000823891F0833809F0BAC0809110038B8385
:1020C000809111038C83B3C080910F0380FF02C005
:1020D000869504C080E002C0809113038B83A7C063
:1020E000809114030E947C2260910F037091100371
:1020F00080911103909112030E943E2398C05A824E
:1021000096C081E08A8389E0E9CFEA80FB80FE24E3
:10211000EF24FE248C80912C5801C70189509D4FDB
:102120009501201B310B2815390508F080C029E0E6
:10213000E21621E0F20628F40E949328F501848338
:1021400002C0F5011482FFEFEF1AFF0A2FEFA21A67
:10215000B20AE3CFEA80FB80FE24EF24FE248C80C9
:10216000912C5801C70189509D4F9501201B310BBF
:102170002815390508F05BC039E0E31631E0F306B5
:1021800020F4F50164810E94A728FFEFEF1AFF0AEF
:102190002FEFA21AB20AE6CF0E945A2148C084E06B
:1021A0008A8345C0EA80FB80FE24EF24FE248C80D5
:1021B000912C5801C70187969501201B310B2815DA
:1021C0003905A8F530EDE31632E0F30628F40E9455
:1021D0009328F501848302C0F5011482FFEFEF1A02
:1021E000FF0A2FEFA21AB20AE5CFEA80FB80FE2495
:1021F000EF24FE248C80912C5801C701879695010D
:10220000201B310B2815390590F430EDE31632E030
:10221000F30620F4F50164810E94A728FFEFEF1A6E
:10222000FF0A2FEFA21AB20AE8CF8FEF89838091BD
:10223000EC01843009F0E6CB8091E9008F702091A9
:10224000EC00922F917020FD90E8F92EF82A82E0A0
:102250008093E9008091E80080FF0CC040E050E0EE
:1022600060E270E0C8010E94C6168091E8008E7797
:102270008093E8008F2D8F708093E900C3CB49BC19
:10228000F9BC09B400FEFDCF8091D8008F7D80930A
:10229000D8008091E00082608093E0008091E000AF
:1022A00081FDFCCF0E949A27B4CB86E290E00E9489
:1022B00093281B821C821D828E83B9CF2D32314020
:1022C00008F022CD60CD2D32314008F073CDB1CD74
:1022D0008091EE0187FF11C08091E80082FD05C06A
:1022E0008091EC018111F8CF11C08091E8008B77CB
:1022F0000BC08091EC01882349F08091E80080FFB9
:10230000F8CF8091E8008E778093E8000895982FA9
:10231000973068F59093E900981739F07091EC00C8
:102320002091ED005091F00003C0242F762F50E053
:1023300021FD02C09F5FECCF3091EB003E7F3093D8
:10234000EB003091ED003D7F3093ED003091EB00DC
:1023500031603093EB007093EC002093ED005093CC
:10236000F0002091EE0027FDE5CF80E008958F700A
:102370008093E90081E008952091F4013091F50106
:102380002617370748F06115710539F42091E800E8
:102390002E772093E80001C0B901FC0120E061150F
:1023A000710579F18091EC018823F1F18530F1F12B
:1023B0008091E80083FD3CC08091E80082FD2EC042
:1023C0008091E80080FFEBCF2091F3008091F20034
:1023D00090E0922B6115710551F08830910538F429
:1023E00021912093F100615071090196F3CF21E012
:1023F000089709F020E08091E8008E778093E8004C
:10240000CECF2111CFCF0AC08091EC01882361F09B
:10241000853061F08091E80083FD0AC08091E8007A
:1024200082FFF2CF80E0089582E0089583E008956E
:1024300081E008958091C90108958091F601982F57
:102440009670963011F4886001C0877F0C944F27F6
:102450001F93CF93DF93CDB7DEB7AA970FB6F8944B
:10246000DEBF0FBECDBFEEEEF1E08091F1008193B3
:1024700041E0E63FF407C9F78091EF01833009F4AA
:1024800062C030F4813071F0823009F49CC0B3C076
:102490008A3009F488C08B3009F46DC0893009F0A6
:1024A000AAC020C08091EE01813A09F0A4C08091B9
:1024B000E800877F8093E8008091F2019091F3011A
:1024C000892B21F460E28AEC91E003C060E080E0B7
:1024D00090E070E00E94BC118091E8008B778093BF
:1024E000E80089C08091EE01813209F084C08091BA
:1024F000F2019091F301009719F0029709F07BC067
:102500008091E800877F8093E8008091E80082FD59
:1025100005C08091EC018111F8CF6DC02091F300CE
:102520008091F20090E0922B029729F48091F100C3
:102530008B7F813021F48091F1008093C9018091DB
:10254000E8008B7754C08091EE01813A09F053C0C6
:102550008091F2019091F301892B09F04CC0809198
:10256000E800877F8093E8008091E80080FFFCCF3F
:1025700080910A0137C08091EE018132E1F58091AE
:10258000F2019091F301892BB1F58091E800877FEA
:102590008093E8000E9468118091F00180930A0105
:1025A0000E949A2728C08091EE01813221F5809106
:1025B000E800877F8093E8000E9468118091F10114
:1025C0008093C80118C08091EE01813AA1F48091F6
:1025D000E800877F8093E8008091E80080FFFCCFCF
:1025E0008091C8018093F1008091E8008E778093FC
:1025F000E8000E9468118091E80083FFDDC18091AE
:10260000EE019091EF01492F50E04A30510508F05A
:10261000D3C1FA01EB58FF4F0C944329803821F0C5
:10262000823809F0C9C108C08091EA019091EB019C
:10263000992389F082600FC08091F2018F708730FA
:1026400008F0BAC18093E9008091EB0085FB8827F0
:1026500080F91092E9009091E800977F9093E8004C
:102660008093F1001092F10070C1282F2D7F09F0A6
:10267000A3C1882319F0823061F09EC18091F001DE
:10268000813009F099C1933009F080E08093EB012B
:102690002EC08091F00181112AC08091F2018F70CB
:1026A0002FEF280F263008F087C18093E900209192
:1026B000EB0020FF1CC0933021F48091EB0080627E
:1026C00014C09091EB0090619093EB0021E030E01A
:1026D000A90102C0440F551F8A95E2F74093EA0012
:1026E0001092EA008091EB0088608093EB001092DA
:1026F000E9008091E800877F8093E8000E946811DC
:102700005BC1811159C11091F0011F778091E300E5
:102710008078812B8093E3008091E800877F80930D
:10272000E8000E9468118091E80080FFFCCF809152
:10273000E30080688093E300111102C082E001C0D1
:1027400083E08093EC0138C18058823008F034C1B6
:102750002091F0013091F1012C3D53E0350779F5DE
:1027600083E08A838AE289834FB7F894DE01139667
:1027700020E03EE051E2E32FF0E050935700E49177
:1027800020FF03C0E295EF703F5FEF708E2F90E067
:10279000EA3010F0C79601C0C0968D939D932F5FCD
:1027A000243149F74FBF8091E800877F8093E8008C
:1027B0006AE270E0CE0101960E94BC11B4C0809123
:1027C000F2019091F301432F552743305105A9F0B1
:1027D00068F44130510509F4FEC04230510509F05A
:1027E000EBC08BE590E0E4EFF2E04BC041325105E5
:1027F00029F14232510589F1DFC0C90199278130A1
:102800009105A1F058F0029709F0D6C0E1E6F3E097
:10281000E4918E2F90E0E1E6F3E030C0E3E7F3E0EF
:10282000E4918E2F90E0E3E7F3E028C0EBE6F3E0DD
:10283000E4918E2F90E0EBE6F3E020C08330910529
:1028400008F0BAC0880F991FFC01E95CFE4F0190A7
:10285000F081E02D89E090E014C08330910508F00C
:10286000ABC0FC01EE0FFF1FEF5CFE4F0190F0814B
:10287000E02DDC01A25DBE4F8C9190E0009709F441
:102880009BC02091E800277F2093E8002091F4016D
:102890003091F5012817390708F4C90140E0009785
:1028A00089F12091EC01222309F43DC02530D9F1B2
:1028B0002091E80023FD37C02091E80022FD2FC0C1
:1028C0002091E80020FFEBCF4091F3002091F2002F
:1028D00030E0342B009759F02830310540F4449112
:1028E0004093F100319601972F5F3F4FF3CF41E0C6
:1028F0002830310509F040E02091E8002E77209340
:10290000E800CDCF4111CDCF0AC08091EC018823E2
:1029100051F0853041F08091E80083FD04C0809142
:10292000E80082FFF2CF8091E8008B778093E80087
:1029300043C0803809F040C08091E800877F8093D1
:10294000E8008091ED018093F1008091E8008E779E
:10295000D3CE811131C08091F0019091F10199277E
:10296000029754F58091E800877F8093E8001091EA
:10297000F0011093ED010E946811111106C08091C1
:10298000E30087FD02C081E001C084E08093EC0198
:1029900042E061EC81E00E94871142E261EC84E058
:1029A0000E94871142E261EC82E00E94871142E2BC
:1029B00060EC83E00E9487118091E80083FF10C0E3
:1029C0008091E800877F8093E8008091EB0080622F
:1029D0008093EB0005C082E190E0EFE4F3E051CF9B
:1029E000AA960FB6F894DEBF0FBECDBFDF91CF9190
:1029F0001F9108951F920F920FB60F9211242F93DB
:102A00003F934F935F936F937F938F939F93AF9376
:102A1000BF93CF93DF93EF93FF93C091E900CF7003
:102A20008091EC00D82FD17080FDD0E81092E900A1
:102A30008091F000877F8093F00078940E942812A4
:102A40001092E9008091F00088608093F000CD2B17
:102A5000CF70C093E900FF91EF91DF91CF91BF91CB
:102A6000AF919F918F917F916F915F914F913F9126
:102A70002F910F900FBE0F901F901895E8EDF0E08A
:102A800080818E7F80831092E2001092DA00109293
:102A9000E100A0EEB0E08C9181608C9380818F7713
:102AA000808319BCA7EDB0E08C918E7F8C938081E0
:102AB0008F7E80831092C7010895CF92DF92EF92AC
:102AC000FF920F931F93CF93DF93C8EDD0E08881DF
:102AD0008F7E8883E7EDF0E080818160808384E0F1
:102AE00082BF81E08093C70188818E7F888302EE58
:102AF00010E0F80110821092DA0081EEC82ED12C7D
:102B0000F601108288818F77888388818068888326
:102B100088818F7D888319BC1092EC011092ED01A1
:102B20001092EB011092EA0190EEE92EF12CF701E0
:102B300080818B7F808388818160888342E060E030
:102B400080E00E948711F60180818E7F8083F801EA
:102B5000808181608083808188608083F7018081AB
:102B60008E7F8083888180618883DF91CF911F91E0
:102B70000F91FF90EF90DF90CF9008951F920F92EA
:102B80000FB60F9211242F933F934F935F936F9340
:102B90007F938F939F93AF93BF93EF93FF93809116
:102BA000E10082FF09C08091E20082FF05C08091B0
:102BB000E1008B7F8093E1008091DA0080FF2AC0E2
:102BC0008091D80080FF26C08091DA008E7F8093AC
:102BD000DA008091D90080FF18C080E189BD82E1D0
:102BE00089BD09B400FEFDCF81E08093EC018091A6
:102BF000C70181110FC00E943E150E945D15809192
:102C0000E20084608093E20005C019BC1092EC01E0
:102C10001092C7018091E10080FF17C08091E2000F
:102C200080FF13C08091E2008E7F8093E20080914C
:102C3000E20080618093E2008091D80080628093FE
:102C4000D80019BC85E08093EC018091E10084FFFD
:102C50002EC08091E20084FF2AC080E189BD82E11C
:102C600089BD09B400FEFDCF8091D8008F7D80938F
:102C7000D8008091E1008F7E8093E1008091E20096
:102C80008F7E8093E2008091E20081608093E20079
:102C90008091ED01882311F084E007C08091E3006A
:102CA00087FD02C081E001C083E08093EC01809148
:102CB000E10083FF27C08091E20083FF23C0809161
:102CC000E100877F8093E10082E08093EC01109225
:102CD000ED018091E1008E7F8093E1008091E20020
:102CE0008E7F8093E2008091E20080618093E20019
:102CF00042E060E080E00E9487118091F0008860EF
:102D00008093F000FF91EF91BF91AF919F918F91D0
:102D10007F916F915F914F913F912F910F900FBED7
:102D20000F901F9018952091E4003091E50095E6F2
:102D30004091EC00842F817040FF23C08091E80017
:102D400080FD1DC08091EC01882399F0853099F0B9
:102D50008091EB0085FD11C04091E4005091E500A9
:102D60002417350729F3915011F09A01E1CF84E03F
:102D7000089582E0089583E0089581E0089580E059
:102D800008954091E80042FFDDCF0895EF92FF9251
:102D90000F931F93CF93DF937C018B010E949316B7
:102DA000811119C0E70101151105A1F08091E8001A
:102DB00085FD0AC08091E8008E778093E8000E942C
:102DC0009316882381F307C089918093F100015005
:102DD0001109E9CF80E0DF91CF911F910F91FF9012
:102DE000EF9008959091EC01943029F58093C401FF
:102DF0007093C6016093C5019093E9008FEF9091A5
:102E0000E800815095FD06C095ED9A95F1F7000018
:102E10008111F5CF8091E80085FF0DC040E050E0C2
:102E200063E070E084EC91E00E94C6168091E800B7
:102E30008E778093E8000895BC0184E00C94F2162C
:102E4000BC0183E00C94F21624E02093E9002FEFFC
:102E50003091E800215035FD06C035ED3A95F1F787
:102E600000002111F5CF2091E80025FF0BC040E0C4
:102E700050E066E070E00E94C6168091E8008E7710
:102E80008093E8000895CF93DF9320910A012223D5
:102E900039F02091C20127FF03C060E224E002C0A4
:102EA00068E021E02093E9002FEF3091E800215005
:102EB00035FD06C035ED3A95F1F700002111F5CF4B
:102EC0002091E80025FF1DC0EC0180910A018111CD
:102ED00005C040E050E068E070E003C070E040E012
:102EE00050E0CE010E94C6168091E8008E77809354
:102EF000E80080E2FE01AAECB1E001900D928A9513
:102F0000E1F7DF91CF91089581E08093E00080E2C6
:102F10008093D8001092C9008FE19EE40197F1F7E9
:102F200000C0000087E090EBDC0180935803909391
:102F30005903A0935A03B0935B039CE088E10FB65A
:102F4000F894A895809360000FBE90936000FFCF27
:102F500078941F920F920FB60F9211248F939F9324
:102F6000AF93BF938091BE019091BF01A091C0012A
:102F7000B091C1010196A11DB11D8093BE01909336
:102F8000BF01A093C001B093C101BF91AF919F91C8
:102F90008F910F900FBE0F901F9018959C014FB707
:102FA000F8948091BE019091BF01A091C001B091B1
:102FB000C1014FBF821B930B08952FB7F8948091E6
:102FC000BE019091BF01A091C001B091C1012FBF7E
:102FD000089580E008959091C20192FF0DC0282FBE
:102FE0002871283019F4877F846006C0282F247147
:102FF000243011F48B7F886093FF0DC0282F287137
:10300000283119F4877E846106C0282F2471243169
:1030100011F48B7E88612091C30120FF0DC0382FF1
:103020003871383019F4877F816006C0382F3171CC
:10303000313011F48E7F886021FF0DC0282F287158
:10304000283119F4877E816106C0282F2171213132
:1030500011F48E7E886194FD877E0895F894E82FA0
:10306000E295EF70F0E031A1282F2F7081E090E021
:1030700001C0880F2A95EAF7982F9095932391A382
:1030800092A1892B82A3789408956F927F928F9258
:103090009F92AF92BF92CF92DF92EF92FF920F93E7
:1030A0001F93CF93DF93CDB7DEB72C970FB6F8946D
:1030B000DEBF0FBECDBF8E010F5F1F4F8CE0D8016A
:1030C0001D928A95E9F799E1C92E91E0D92EE12C5C
:1030D000F12CAA24A394B12C4E01BDE08B0E911CBF
:1030E000F60180818F3F09F453C0F894E82FE295F0
:1030F000EF70F0E021A18F70A50102C0440F551FB1
:103100008A95E2F7CA01922F982B91A392A18095FC
:10311000892382A3789400C095010E2C02C0220F4F
:10312000331F0A94E2F7A9014095509588E2682E72
:1031300081E0782EF801D3016D913D016F3FA9F038
:10314000862F82958F7090E0DC0190968C9190E0B4
:103150006F7002C0959587956A95E2F780FD05C06E
:1031600080819181822B932B04C080819181842363
:1031700095239183808332968E169F06E1F6F601A1
:1031800080818F3F11F00E942E18F0EAFA95F1F736
:103190004FEFE41AF40A5FEFC51AD50A8FE0E8167C
:1031A000F10409F09DCF4CE050E0B80187E991E0CF
:1031B0000E949A29FF24F394009709F4F12C892B9B
:1031C00089F08CE0F801A7E9B1E001900D928A95B1
:1031D000E1F781E0809357020E94DD179093560239
:1031E00080935502809157028823D1F18091550236
:1031F000909156020E94CE17059790F18091970109
:10320000909198019093B3018093B20180919901BC
:1032100090919A019093B5018093B40180919B01A4
:1032200090919C019093B7018093B60180919D018C
:1032300090919E019093B9018093B80180919F0174
:103240009091A0019093BB018093BA018091A1015C
:103250009091A2019093BD018093BC0110925702FE
:103260008F2D2C960FB6F894DEBF0FBECDBFDF9129
:10327000CF911F910F91FF90EF90DF90CF90BF9073
:10328000AF909F908F907F906F900895CF93DF9332
:103290008238910569F1B0F48133910509F46FC06A
:1032A00048F48932910509F465C08A32910509F420
:1032B0006BC08AC08533910509F457C089339105E5
:1032C000B9F082C0833E910571F138F4803E9105DA
:1032D000B1F0823E910511F177C0863E9105B9F1BA
:1032E000873E9105C9F1843E910509F06DC024C067
:1032F0002091C20120FD53C021FD51C065C08091C5
:10330000C20180FD46C08091C30180FF48C080910A
:10331000C20184FD50C183EE90E04FC18091C20193
:1033200082FF3AC0F4CF8091C20182FD35C0809106
:10333000C30180FD34C0EBCF8091C30181FF35C054
:103340008091C20184FD37C187EE90E036C1809143
:10335000C20183FF27C0F4CF8091C20183FD22C048
:103360008091C30181FD21C0EBCF8091C20185FD19
:103370001FC021C08091C20185FD1DC019C0809170
:10338000C20186FD1BC01DC08091C20186FD19C00F
:1033900015C089E390E011C182EE90E00EC180EE8D
:1033A00090E00BC186EE90E008C184EE90E005C18C
:1033B00089E290E002C185E390E0FFC08AE290E0FC
:1033C000FCC081E390E0F9C0811531E5930708F076
:1033D00069C0811540E59407F0F09C0174E03695D2
:1033E00027957A95E1F7922F9370482F437021E04B
:1033F00030E002C0220F331F4A95E2F73C68392BB8
:10340000982F9F709695969540E2949FC001112445
:10341000822B932BD2C0883E910568F5803E9105A2
:1034200008F0CBC0883A9105B8F4853A910548F088
:10343000855AE82FF0E0E35CFE4F808190E09064D5
:10344000BCC08130910509F4B3C008F4B4C0843025
:10345000910508F4B0C0B1C08F3B910508F0ABC036
:10346000885AE82FF0E0EE0FFF1FE05CFE4F8081EE
:1034700091819464A2C0811520E2920758F48115CD
:1034800031E0930708F099C0803F910508F493C09C
:10349000906593C0811540E4940708F48CC09F7038
:1034A000906A8BC0811525E5920708F042C081150E
:1034B00034E5930728F0982F8827846F906A7DC0A1
:1034C000811543E59407B0F09C012370332741E058
:1034D00050E002C0440F551F2A95E2F7282F269589
:1034E000269580E2289F90011124CA01822B932BFC
:1034F0009A6863C0811522E5920728F4982F8827DF
:10350000816F906A5AC09C012370332741E050E0DC
:1035100002C0440F551F2A95E2F7282F26952695BD
:1035200080E2289F90011124CA01822B932B9C6872
:1035300044C0EC01811539E59307A8F4811598453D
:1035400028F09C2F8827806F906A37C0C11586E5C8
:10355000D80788F58C2F0E94EB178F7190E0982F79
:10356000882790622AC081152AE5920790F48C2F53
:103570008F700E94EB1794E0D695C7959A95E1F766
:10358000CF70D0E0DC2FCC27D0699E01282BC90159
:1035900014C090568115904270F48D2F8F710E9447
:1035A000EB17282F2F71CE0199279062922B05C01F
:1035B00081E090E002C080E090E0DF91CF9108953B
:1035C000CF9384E090E00E949328C82F82E290E09D
:1035D0000E9493282C2F30E0A901582BCA01CF91CB
:1035E000089580E090E00E94A128893E9E4F11F44A
:1035F0000C94FE2180E0089569EE7EEF80E090E07B
:103600000E94C52860E082E090E00E94A72860E068
:1036100083E090E00E94A7281092540260E084E0CA
:1036200090E00E94A72860E082E290E00E94A72834
:1036300060E085E090E00E94A72860E086E090E0EE
:103640000E94A7286FEF87E090E00E94A72840E043
:1036500050E0BA0188E090E00E94B92860E08DE077
:1036600090E00E94A72840E050E0BA0188E190E095
:103670000E94B92860E087E190E00E94A72840E01E
:1036800050E0BA018CE190E00E94B92860E070E05F
:1036900080E290E00E94C52840E050E0BA0188E155
:1036A00090E00E94B92880E00E94D1210E94EF2181
:1036B00040E050E0BA018FE090E00E94B92840E07D
:1036C00050E0BA0183E190E00C94B9288091530254
:1036D00081111092530208959091520280915102EB
:1036E000892B20915002982F922B9093F701809173
:1036F00053028823D9F0892B8093F70180910A0126
:10370000882331F08091C20187FF02C08EE101C0A1
:1037100086E0E9EFF1E090E0815028F0219122234A
:10372000D9F39F5FF9CF91110E94661BE0911A03B4
:10373000F0911B033097A9F080910A01882359F07A
:103740008091C20187FF07C08091F7018093F80143
:1037500085E08093F7010280F381E02D87EF91E00F
:1037600009940895CF93C091C301C2FB992790F9A2
:10377000981781F080FBC2F9C093C3016091C20128
:1037800084E090E00E94A7286C2F82E290E0CF9125
:103790000C94A728CF91089520914F028095822301
:1037A00080934F02982F977041F430E0482F082EF5
:1037B000000C550B2417350721F49091C30192FF9B
:1037C00007C08595859585950E94532710924F02D5
:1037D000089580914E0290911D02891719F08F5F14
:1037E0008770FBCF08950F931F93CF93DF93809142
:1037F0001C0282958F7009F05DC0809119028823A8
:1038000009F458C080914E0210911D026091170278
:1038100070911802C0911A02D0911B0291E06F3F83
:1038200009F090E0292F06E0811709F443C02097A2
:1038300021F07F3F21F030E003C031E001C0322FA2
:1038400090E030FD34C0089FF001099FF00D112475
:10385000DF01A25EBD4F11963C911197371327C02F
:103860003C91361324C012963C91129731111FC01F
:1038700013964D915C9114974C1B5D0B483C510580
:10388000B0F480911C028F70806180931C02ED5D0A
:10389000FD4F80818F708061808387E192E00E947C
:1038A000C304DF91CF911F910F910C94E91B0196F6
:1038B0008770BACFDF91CF911F910F910895CF9369
:1038C000DF93EC010E94C926BE010E94C4210E9420
:1038D0004619DF91CF9108959F92AF92BF92CF92F8
:1038E000DF92EF92FF920F931F93CF93DF93CDB7A9
:1038F000DEB761970FB6F894DEBF0FBECDBF8C0167
:1039000085E0F801DE011D9601900D928A95E1F7A0
:10391000F801E280909117026091180240911A021A
:1039200050911B024115510531F06F3F31F481E098
:103930009F3F19F403C081E001C080E0F82FF170CF
:103940009F2E80FD1AC1F80130812181C380D4806F
:1039500087E1A82E82E0B82EF0901902F601E41B50
:10396000F50BFF2009F4C6C080911C02E83CF1056C
:1039700008F091C0482F407F09F050C0621311C079
:1039800093130FC0FE2CE1100CC08F7080618093E8
:103990001C02C5010E94C30480911C02F8018583AA
:1039A00029C1CD2831F02F3F31F481E03F3F19F498
:1039B00003C081E001C080E080FD03C081E08E256E
:1039C00002C080E090E0F82FF170FF2E80FF1CC055
:1039D00080914E0240911D0256E0841709F4E8C020
:1039E00090E0589FF001599FF00D1124E25EFD4FC9
:1039F0006181261306C06081631303C06281E612F1
:103A000003C001968770E9CFFE2CEE2009F4F2C0C6
:103A100080911C02816080931C0249C0621306C021
:103A2000931304C0E11002C0F80186C0C8010E94CF
:103A30006E27882351F1EE2041F120911C02822F44
:103A400082958F7090E0029774F0809117029091A8
:103A5000180298878F831986DB86CA862C87CE0149
:103A600007960E94C30486E0F801A7E1B2E0019046
:103A70000D928A95E1F70E94F31B0AC06217C9F004
:103A8000C8010E946E2781111EC0C8010E94C30494
:103A9000FF24F394AFC0482F407F81F787E192E085
:103AA0000E94C30486E0F50111928A95E9F7F12C92
:103AB000A1C09313E5CFE110E3CFF8018583C801DE
:103AC0000E94C30454C0EE2001F320911C02822FF7
:103AD00082958F7090E0029734F280911702909156
:103AE00018029A8389831B82DD82CC822E83CE01C9
:103AF0000196B7CFE83CF105D0F5FE2CEE2029F277
:103B0000621327C0931325C020911C0220FD18C00A
:103B1000822F82958F70482F50E04115510581F01A
:103B2000F80125834F30510541F08F5F982F929512
:103B3000907F822F8F70892B8583C8010E94C304D8
:103B400086E0F801A7E1B2E001900D928A95E1F7D5
:103B500051C0C8010E946E27811185CF80911C023F
:103B6000816080931C02C8010E94C30443C086E0A8
:103B7000F50111928A95E9F73DC0EE2009F485CF51
:103B8000C8010E946E27F82E882309F47ECF86E0B4
:103B9000F801A7E1B2E001900D928A95E1F78091DA
:103BA0001702909118020E945F1C0E94F31B22C012
:103BB0003D872E878D859E850E945F1C292F22952B
:103BC0002F70223028F49F7039F0811105C00BC08E
:103BD000243028F49F7049F4805E883020F0C801BA
:103BE0000E94C3049F2CF92C05C0F8019581907F99
:103BF00099F7F9CF8F2D61960FB6F894DEBF0FBEFF
:103C0000CDBFDF91CF911F910F91FF90EF90DF908B
:103C1000CF90BF90AF909F9008950895EF92FF923C
:103C20000F931F93CF93DF938C01CBE5D2E0E12C70
:103C3000F12CF8018481FEE1EF16F1041CF48823D5
:103C400051F002C0811107C040911203423408F0C4
:103C500041E49E0102C09E0140E060911103809109
:103C600010030E9482238FEFE81AF80A23969CE340
:103C7000E916F104F1F60E94DD22F801848190E05A
:103C80000196817099278483DF91CF911F910F91C5
:103C9000FF90EF9008958F929F92AF92BF92CF9234
:103CA000DF92EF92FF920F931F93CF93DF93EC017C
:103CB0004C81042F10E09801D8010E9458299B01E3
:103CC000AC010E946E296B017C01E0E2F0E0E01B98
:103CD000F10BA5E5B0E09B01AC010E946E294B0100
:103CE0005C019F01DF010E9450299B01AC010E94F1
:103CF00079299B01AC012C0D3D1D4E1D5F1DC50199
:103D0000B4010E942129822FF22E99E2921728F005
:103D100093E0299F900111240DC025E530E0281B78
:103D20003109C901880F991F280F391F37FF02C0B9
:103D30002F5F3F4F35952795122F10959BE5C92E84
:103D400092E0D92E00E085E5E82EEF1801FD02C0D3
:103D50008E2D01C08F2D412F123408F041E49601C1
:103D6000609111030E9482230F5F83E0C80ED11C73
:103D70000C3361F70E94DD228C81811102C091E039
:103D800003C0803219F49FEF90930D0190910D01C3
:103D9000890F8C83DF91CF911F910F91FF90EF904E
:103DA000DF90CF90BF90AF909F908F9008950F932A
:103DB0001F93CF93DF93CBE5D2E0FE0111821082F7
:103DC0001282339683E0EF30F807C1F700E010E08D
:103DD00080915902082E000C990B08171907ACF0B6
:103DE00080910C01082E000C990B801791076CF044
:103DF00040911203423408F041E49E0160911103A6
:103E0000809110030E94822303C0198218821A82B3
:103E10000F5F1F4F23960C331105D1F60E94DD2250
:103E200080910B0190915902980F90935902209123
:103E30000C01280F20930C01121614F49B331CF074
:103E4000819580930B01DF91CF911F910F91089580
:103E5000BF92CF92DF92EF92FF920F931F93CF9377
:103E6000DF93FC01828180FF03C0DD24DA9402C06D
:103E7000DD24D3940BE512E0C0E0D0E02CE3B22EB9
:103E8000F80111821082128294E0E92EF12CC12CEB
:103E9000809158028C0D8D332CF06B2D0E94EB28F5
:103EA000892F02C087FD845C082E000C990BC8176F
:103EB000D907A9F4809112038E9DA0018F9D500D0A
:103EC00011245595479555954795423408F041E49E
:103ED000980160911103809110030E948223CD0C00
:103EE000F1E0EF1AF108A1F621960D5F1F4FCC33D8
:103EF000D10531F60E94DD228091580291E0D9125D
:103F000006C0811102C08BE307C0815005C090E05C
:103F10000196BE010E940D2980935802DF91CF9136
:103F20001F910F91FF90EF90DF90CF90BF90089579
:103F3000EF92FF921F93CF93DF93EC018BE5E82E76
:103F400082E0F82E10E040911203423408F041E480
:103F50008C81970160911103810F0E9482231C5F65
:103F600083E0E80EF11C103F71F70E94DD229A8178
:103F70008C8190FF02C08F5F01C081508C83DF91E4
:103F8000CF911F91FF90EF9008950F931F93CF93C0
:103F9000DF9300D01F92CDB7DEB78C0180915A021B
:103FA00081110AC09E012F5F3F4F41E46FEF0E94D5
:103FB00082238A8180935A02F8018481813051F0F2
:103FC00028F0823061F440915A020AC080915A026E
:103FD00040E007C060915A0240E080E003C040E04A
:103FE00080E060E00E941323F801848190E0019654
:103FF00063E070E00E940D2984830F900F900F9072
:10400000DF91CF911F910F910895CF93DF93EC0132
:10401000EFE0F3E0438162818C810E9418248C815F
:104020008F5F8C83DF91CF910895CF93DF93EC0165
:10403000EC81F0E0E958FC4F4491EFE0F3E062815D
:1040400081810E9418248C818F5F8C83DF91CF91B6
:1040500008951F920F920FB60F9211248F939F9382
:10406000AF93BF9380911E03811113C08091BE0155
:104070009091BF01A091C001B091C1014196A11DD5
:10408000B11D8093BE019093BF01A093C001B09376
:10409000C101BF91AF919F918F910F900FBE0F9073
:1040A0001F90189520910A012223C9F02091C20186
:1040B00027FF15C0262F2695269526952E31C8F464
:1040C000FC01E20FF11D677081E090E001C0880FF4
:1040D0006A95EAF780959281892382830895FC018D
:1040E00006962281621301C012823196E817F90701
:1040F000C1F7089520910A012223C1F02091C20145
:1041000027FF14C0262F2695269526952E3130F5AB
:10411000FC01E20FF11D677081E090E001C0880FA3
:104120006A95EAF79281892B82830895FC01329681
:104130002FEF30E04191641789F02F3F19F44111BE
:1041400001C0232F3F5F3630A9F72F3F39F0FC0124
:10415000E20FF11D27FDFA956283089508952091DD
:104160001C0330911D032817390771F090931D032C
:1041700080931C03E0911A03F0911B03309721F008
:104180000084F185E02D0994089520911803309161
:1041900019032817390771F09093190380931803B6
:1041A000E0911A03F0911B03309721F00680F7810C
:1041B000E02D09940895E0911A03F0911B033097C4
:1041C00021F00190F081E02D099480E008950F9393
:1041D0001F93CF93DF93C42FD22FFC0182818823BA
:1041E000C9F0409317030E94DD1790931603809344
:1041F000150380E28C0F883008F057C0C77081E04B
:1042000001C0880FCA95EAF7DF91CF911F910F91F6
:104210000C94BA2780911703481330C0809115037E
:10422000909116030E94CE17883C910538F510E254
:104230001D0FCD17B9F080E28C0F883040F4C770A5
:1042400081E001C0880FCA95EAF70E94AF271830B5
:1042500028F581E09D2F977001C0880F9A95EAF7A5
:104260000E94BA27802F0E9475281830F0F4D7706A
:1042700081E001C0880FDA95EAF70AC080E28C0F6E
:10428000883098F4C77081E001C0880FCA95EAF7BA
:10429000DF91CF911F910F910C94AF27802FDF9169
:1042A000CF911F910F910C947528DF91CF911F91A1
:1042B0000F910895CF93DF93C7EFD2E060E0CE0176
:1042C0000E94A7282196C11584E0D807B9F7DF918D
:1042D000CF910895CF92DF92EF92FF920F931F93A9
:1042E000CF93DF93C0E0D0E08E010C541F4F6E01DE
:1042F0008EE1C80ED11CFE01E958FB4FE590F49009
:104300006F2DCE0187960E94A7286E2DCE0188962C
:104310000E94A7282296CC15DD0569F70C171D070A
:1043200031F7E801003D1240F9F6DF91CF911F917E
:104330000F91FF90EF90DF90CF9008950F931F9310
:10434000CF93DF93C42FD0E0CC0FDD1F2EE1629F0F
:10435000C00DD11D112434EB839FC00DD11D11243C
:10436000CE0187960E949328082F10E0102F002777
:10437000CE0188960E9493289801282BC901DF91CD
:10438000CF911F910F910895462F843038F47630E5
:1043900028F46F3018F4672F0C949E2180E090E091
:1043A0000895CF93C82F811102C06FEF01C061E261
:1043B00083E290E00E94A728C11102C06FEF01C004
:1043C00061E184E290E00E94A728C11102C06FEF72
:1043D00001C062E185E290E0CF910C94A72880E0D3
:1043E0000E94D12160E086E290E00E94A7280E940E
:1043F0006A210E945A2181E00C94D12183E290E04D
:104400000E949328813281F484E290E00E949328F4
:10441000813151F485E290E00E94932891E082314D
:1044200009F090E0892F01C080E081700895CF925B
:10443000DF92EF92FF92843048F4811108C090918E
:1044400080009F7D909380002E9806C083E090911D
:104450008000906290938000282F30E0AFEFBFEF94
:104460000E94582923E030E040E050E00E942129DA
:10447000B42FA32F922F8827492F5A2F6B2F7727DE
:10448000CA014C3724E1520728F469E070E00E9429
:10449000F92829C0DB01CA018A50974DAF4FBF4FA1
:1044A0006627782F892F9A2F25EF38E241E050E0D8
:1044B0000E94212969017A01CA01B9010E94DB2801
:1044C0009B01AC01C701B6010E94DB28BB27A92FC5
:1044D000982F872F009721E0A207B10511F0BC01AA
:1044E00002C06FEF7FEF70938B0060938A00FF90A4
:1044F000EF90DF90CF900895682F86E090E00C94C5
:10450000A728843008F083E0909114039770282F37
:10451000220F220F220F922B90931403987F21E0F9
:1045200009F420E09091140320FB90F99093140378
:104530000C9417220E94F11A81110AC00E94FC1AE1
:104540008091140384708961809314030E947C22FB
:1045500086E090E00E94932880931403282F2695EC
:104560002695269530E02430310524F08770886147
:10457000809314038091140380FF04C08695869570
:10458000869501C080E00C94172290910F0390FF54
:1045900004C09695981740F003C0811105C090E0C3
:1045A000961710F40C94642561E00C941925882367
:1045B00011F0FA0101C0FB01099480910F0380FF03
:1045C0000AC06A9A8EB18B7F9EB194602FB7F8941F
:1045D000EBE5F2E00BC0EBE5F2E011821082128213
:1045E000339633E0EF30F307C1F7EBCF33E0EF3032
:1045F000F30789F0319148E09EB9000000C037FF11
:104600008EB9330F000000C000C000C08EB900C0DA
:104610004A9591F7EBCF2FBF8FE594E00197F1F723
:1046200000C00000089590910F0390FF0CC0EBE5CF
:10463000F2E0818360834283339693E0EF30F907A1
:10464000C1F70C94DD22089580910F03282F269541
:1046500030E02115310519F48170826005C02532E2
:10466000310524F08170886480930F0380911203D8
:10467000823418F081E4809312030895CF92DF9280
:10468000EF92FF926B017C010E942423B701A601E7
:1046900088E090E0FF90EF90DF90CF900C94B928E5
:1046A00080911303882319F0815080931303609144
:1046B0000F037091100380911103909112030C94D9
:1046C0003E2380911303833018F48F5F809313038C
:1046D00060910F0370911003809111039091120368
:1046E0000C943E23EFE0F3E083E0808311828FEFB0
:1046F000828381E4838314826081718182819381CA
:104700000C943E23AF92BF92CF92DF92EF92FF9232
:104710000F931F93CF93DF93E82EF62EE901E42F3A
:10472000F0E0611106C0ED56F94FE4914E2F2E2FA7
:1047300071C0062F10E0ED56F94F4491F42FC42EAE
:10474000D12C26E0829FC00111242FEF30E0B90167
:104750000E94F9285BEA5603C001579F900D11246F
:104760008E0D911D8E0D911D582F550F580FD9018B
:10477000A01BB10BAC9DC001AD9D900DBC9D900DDB
:104780001124E92FF59ED0011124AB2FBB2779010D
:10479000EA1AFB0AEC9CD001ED9CB00DFC9CB00D1C
:1047A00011245901A51AB108A09E7001A19EF00C18
:1047B000B09EF00C1124EF2CFF242E193F092C9DE4
:1047C00080012D9D100D3C9D100D1124212F623074
:1047D000710591F048F461157105E1F061307105E2
:1047E000B9F4242F4B2F16C06430710569F040F0E6
:1047F0006630710579F00CC0242F492FE12F0AC0D3
:10480000492FEF2F2B2F06C0292FE42F412F02C055
:10481000292FEB2F49832883EA83DF91CF911F91C2
:104820000F91FF90EF90DF90CF90BF90AF900895E1
:10483000CF93DF9300D01F92CDB7DEB790910F03D7
:1048400090FF0DC0423408F041E49E012F5F3F4FBE
:104850000E9482234B8169818A810E9413230F90D9
:104860000F900F90DF91CF9108955F926F927F929A
:104870008F929F92AF92BF92CF92DF92EF92FF9270
:104880000F931F93CF93DF9300D01F92CDB7DEB766
:10489000082F762E142F622E90910F0390FF74C074
:1048A000E92FE695AE2FB0E0A259BE4F8C918093D0
:1048B00032039E7F923081F4423408F041E49E013D
:1048C0002F5F3F4F672D802F0E9482234B8169818C
:1048D0008A810E94132346C0823019F4109112037A
:1048E00041C0863019F4009110033CC08930D9F3DF
:1048F0008931C1F5E9518E2F8170582EE695F0E08F
:10490000ED56F84FA590B4908BE5C82E82E0D82ED6
:10491000E12CF12CBB249CE3892E912CAE9CC00190
:10492000AF9C900DBE9C900D1124B4010E94F928FB
:10493000802F511002C0860F01C0861B412F1234F8
:1049400008F041E49601672D0E9482238FEFE81A58
:10495000F80A83E0C80ED11C8CE3E816F104F1F6E6
:104960000E94DD2200931003709211031093120332
:10497000662051F060910F03709110038091110334
:10498000909112030E943E230F900F900F90DF91A1
:10499000CF911F910F91FF90EF90DF90CF90BF903C
:1049A000AF909F908F907F906F905F900895EFE011
:1049B000F3E0438128E0421B08F440E021E06281FB
:1049C00081810C943524EFE0F3E0438128E0420F2D
:1049D00008F44FEF21E0628181810C943524EFE0EF
:1049E000F3E0628128E0621B08F460E021E043818B
:1049F00081810C943524EFE0F3E0628128E0620FBE
:104A000008F46FEF21E0438181810C943524EFE0BD
:104A1000F3E0818121E04381628188500C94352448
:104A2000EFE0F3E0818121E043816281885F0C94B3
:104A3000352490910F0390FF3DC09170811102C009
:104A4000926006C0853210F0986402C0880F982BDF
:104A500090930F03662351F060910F037091100340
:104A600080911103909112030E943E2360910F03E5
:104A7000669570E04BE050E08EE091E00E948D2959
:104A8000892B19F01092330309C081E0809333031E
:104A90000E94DD1790932D0380932C0381E0809377
:104AA0002F0320E0409112036091110380911003C5
:104AB0000C943524089580910F038695815009F454
:104AC00084E261E00C94192580910F0386958F5F35
:104AD000853208F081E061E00C9419250E94DD1711
:104AE00020912803211104C020912903222321F0C1
:104AF000909325038093240320912A03211104C05D
:104B000020912B03222321F09093230380932203EF
:104B1000E0911A03F0911B03309749F082E08093F3
:104B200026030480F581E02D86E293E00994089540
:104B3000803F39F49091290397FF35C010922903E3
:104B400059C0813F29F4909129031916BCF32BC059
:104B500090912803823F29F497FF25C010922803E3
:104B600049C0833F19F41916CCF31DC090912A0354
:104B7000893F29F41916BCF410922A033BC08A3FDE
:104B800019F497FF10C0F8CF8B3F39F490912B03A5
:104B900097FF09C010922B032DC08C3F21F49091F8
:104BA0002B031916BCF39CE0980F953080F421E09C
:104BB00030E0A90102C0440F551F9A95E2F7CA01DF
:104BC00080959091270389238093270313C08D3FFD
:104BD00021F4809121038E7F0BC08E3F21F48091C0
:104BE00021038D7F05C08F3F29F4809121038B7FA6
:104BF0008093210380912803811106C080912903AD
:104C0000811102C01092200380912A03811106C0F5
:104C100080912B03811102C010921F03089580918F
:104C2000210380FD16C081FD16C082FD18C0809151
:104C30001F03882391F0883290F428E0829FC001FE
:104C4000112468E270E00E940D29862F672B29F05D
:104C500007C082E0089584E0089581E0089588E027
:104C600008958091210380FD14C081FD14C082FD50
:104C700016C080912003882381F0843180F422E3E0
:104C8000829FC001112464E170E00E940D29862FEB
:104C900008958CE0089589E1089585E0089582E300
:104CA0000895803F21F40E943126819504C0813F00
:104CB00029F40E943126809329030895823F21F42C
:104CC0000E943126819504C0833F29F40E94312639
:104CD000809328030895893F19F40E940F2605C088
:104CE0008A3F31F40E940F26819580932A0308950C
:104CF0008B3F21F40E940F26819504C08C3F29F43C
:104D00000E940F2680932B0308959CE0980F953006
:104D100078F421E030E0A90102C0440F551F9A95B4
:104D2000E2F7CA0190912703892B80932703089506
:104D30008D3F21F48091210381600BC08E3F21F4CF
:104D400080912103826005C08F3F29F48091210367
:104D5000846080932103089580E090E00E94C52044
:104D600080E090E00E94AF20109251021092500219
:104D70000E946C1BE6E2F3E086E0DF011D928A955B
:104D8000E9F71092200310921F03109221030C9454
:104D90006E25CF92DF92FF920F931F93CF93DF93F5
:104DA0006C010091F60180915402082BC7E0D0E01D
:104DB00010E0C8010C2E02C0959587950A94E2F781
:104DC00080FD04C02197A8F7F12C09C0FC2EB60184
:104DD0008C2F0E94C4210E944619019799F38F2DB0
:104DE000DF91CF911F910F91FF90DF90CF900895A9
:104DF0002FE0929F800D1124682F66956695669529
:104E0000982F977083E0689FB001112440E050E034
:104E100080E0FB01E40FF51FEC5CFC4F208130E0EB
:104E2000092E02C0369527950A94E2F721703327A0
:104E3000042E01C0220F0A94EAF7822B4F5F5F4FC6
:104E40004330510531F708952FE0929F800D1124D2
:104E5000E82FE695E695E695877051E001C0550F7D
:104E60008A95EAF783E0E89FF0011124EC5CFC4F9F
:104E700020E030E070E04081CB01022E02C0969528
:104E800087950A94E2F7817081958427852384278A
:104E900081932F5F3F4F2330310569F70895809349
:104EA000F6010C94AC2621E030E001C0220F8A9577
:104EB000EAF720958091F60182230C944F2721E098
:104EC00030E001C0220F8A95EAF78091F601822B2B
:104ED0000C944F27809354020C94AC26FC018081E3
:104EE00091810E945F1C292F2F70E92FE295EF70AE
:104EF0004E2F50E0FA013297EE30F105B8F4E15848
:104F0000FF4F0C944329803F99F018F4883E70F4C9
:104F10000FC0843F59F40CC0883E50F0813F31F4FB
:104F200007C0822F869586958695089580E008951E
:104F300081E008951092520280910A01882331F095
:104F40008091C20187FF02C08EE101C086E0E9EFD7
:104F5000F1E0DF011D928A95E9F70C94AC268823D5
:104F600041F08095909152028923809352020C94D3
:104F70006C1B0895882339F090915202892B8093FD
:104F800052020C946C1B08958823B1F19CEF980F8A
:104F9000913A30F4682F87EF91E00E94522014C0BC
:104FA00090E2980F983090F4877021E030E0A901EA
:104FB00002C0440F551F8A95E2F7CA01809590916F
:104FC00052028923809352020C946C1B9BE5980F2C
:104FD000933020F480E090E00C94C52098E5980F81
:104FE000973120F480E090E00C94AF20803F20F0D7
:104FF0000E9498250C946E250895CF93882309F478
:1050000072C0C82F8CEF8C0F813AC0F580910A01D5
:105010008823E1F08091C20187FF18C0EC2FE6954C
:10502000E695E695F0E0E950FE4F8281282F30E0CA
:105030004C2F477081E090E002C0880F991F4A957D
:10504000E2F782239323892B61F412C0E9EFF1E0A8
:105050008FEF91E02191C21721F08E179F07D1F7B2
:1050600007C06C2F87EF91E00E9452200E946C1BBA
:105070006C2F87EF91E00E947A2010C080E28C0FA5
:10508000883078F4C77081E090E001C0880FCA953D
:10509000EAF790915202892B80935202CF910C949F
:1050A0006C1BEBE5EC0FE33040F4F0E0E35CFE4F0B
:1050B000808190E0CF910C94C520E8E5EC0FE731BA
:1050C00050F4F0E0EE0FFF1FE05CFE4F8081918115
:1050D000CF910C94AF20C03F30F08C2F0E9451260E
:1050E000CF910C946E25CF9108951F93CF93DF93AA
:1050F000182F893319F0C0E0D0E002C0C0E5D0E03D
:10510000812F0E94FD27209741F08FE99FE00197B2
:10511000F1F700C000002197F6CF812FDF91CF91EA
:105120001F910C94C427F999FECF92BD81BDF89AC6
:10513000992780B50895A6E1B0E044E050E00C94D2
:10514000CD28A8E1B0E042E050E00C94CD28262F15
:10515000F999FECF92BD81BDF89A019700B402166D
:1051600039F01FBA20BD0FB6F894FA9AF99A0FBE1B
:1051700008950396272F0E94A8280E94A728252F6C
:105180000E94A828242F0C94A8280196272F0E945B
:10519000A8280C94A728DC01CB01FC01F999FECFCB
:1051A00006C0F2BDE1BDF89A319600B40D924150AF
:1051B0005040B8F70895DB018F939F930E946E29AA
:1051C000BF91AF91A29F800D911DA39F900DB29FA3
:1051D000900D1124089587FB082E062687FD8195E2
:1051E00067FD61950E9481290EF4919507FC8195D8
:1051F0000895AA1BBB1B51E107C0AA1FBB1FA6171E
:10520000B70710F0A61BB70B881F991F5A95A9F76F
:1052100080959095BC01CD01089597FB072E16F45B
:10522000009407D077FD09D00E94F92807FC05D02B
:105230003EF4909581959F4F0895709561957F4FAD
:105240000895A1E21A2EAA1BBB1BFD010DC0AA1FC7
:10525000BB1FEE1FFF1FA217B307E407F50720F0DF
:10526000A21BB30BE40BF50B661F771F881F991F5A
:105270001A9469F760957095809590959B01AC01A3
:10528000BD01CF010895EE0FFF1F0590F491E02DB1
:10529000099469279627692778278727782708950B
:1052A0000E945829332312F48A1B9B0B0C94692902
:1052B000A29FB001B39FC001A39F700D811D112457
:1052C000911DB29F700D811D1124911D08950E94A2
:1052D0005829B7FF0895821B930B08950E945829FF
:1052E000A59F900DB49F900DA49F800D911D11243A
:1052F0000895B7FF0C946E290E946E29821B930BB0
:105300000895991B79E004C0991F961708F0961B21
:10531000881F7A95C9F780950895FC014150504047
:1053200030F001900616D1F73197CF010895882704
:1053300099270895FB01DC0104C08D91019080192B
:1053400021F441505040C8F7881B990B0895F894F8
:02535000FFCF8D
:105352001A124317241720171C1701010201011901
:105362001A1B1C1D1E1F2021229091929395949628
:105372009734F7F6F5F4F1F06630313233374022E4
:10538200B6B4029202DC0106031F033F038182834B
:10539200E200E900EA00B500B600B700CD008301E3
:1053A200CC008A01920194012102230224022502E7
:1053B200260227022A02B300B4006F007000000127
:1053C200020202020606060909090909090F0F0F5E
:1053D2000F0F0F1515151819191919191919191966
:0453E2001923240067
:00000001FF
